:020000040800F2
:100000000050002031260008252300083123000875
:10001000372300083D2300084323000800000000A8
:10002000000000000000000000000000492300085C
:100030005523000800000000612300086D2300081C
:100040007926000879260008792600087926000814
:100050007926000879260008792600087926000804
:1000600079260008792600087926000879260008F4
:1000700079260008792600087926000879260008E4
:1000800079260008792600087926000879260008D4
:1000900079260008792600087926000879260008C4
:1000A00079260008792600087926000879260008B4
:1000B00079260008792300087926000879260008A7
:1000C0007926000879260008792600087926000894
:1000D0007926000879260008792600087926000884
:1000E000792600087926000879260008000000001B
:1000F0000000000000000000000000000000000000
:0C01000000000000000000005FF808F1A3
:10010C0010B5054C237833B9044B13B10448AFF345
:10011C0000800123237010BD180000200000000097
:10012C00D426000808B5034B1BB103490348AFF3B1
:10013C00008008BD000000001C000020D426000830
:10014C0080B500AF084B1B68074A43F010031360DF
:10015C00032000F023F9002000F008F802F0AAF8C0
:10016C000023184680BD00BF0020024080B582B03D
:10017C0000AF7860124B1A68124B1B7819464FF47B
:10018C007A73B3FBF1F3B2FBF3F3184600F03BF9CF
:10019C000346002B01D001230EE07B680F2B0AD8FD
:1001AC00002279684FF0FF3000F003F9064A7B68B3
:1001BC001360002300E0012318460837BD4680BDBC
:1001CC0014000020040000200000002080B400AFC8
:1001DC00054B1B781A46054B1B681344034A1360E6
:1001EC0000BFBD4680BC70470400002034000020D6
:1001FC0080B400AF024B1B681846BD4680BC7047EC
:10020C003400002080B485B000AF78607B6803F0C8
:10021C000703FB600C4BDB68BB60BA684FF6FF034F
:10022C001340BB60FB681A02BB68134343F0BF6307
:10023C0043F40033BB60044ABB68D36000BF14377F
:10024C00BD4680BC704700BF00ED00E080B400AF3D
:10025C00044BDB681B0A03F007031846BD4680BC41
:10026C00704700BF00ED00E080B483B000AF0346E0
:10027C00FB7197F90730002B0BDBFB7903F01F02A6
:10028C00064997F907305B09012000FA02F241F8A0
:10029C00232000BF0C37BD4680BC704700E100E056
:1002AC0080B483B000AF03463960FB7197F9073017
:1002BC00002B0ADB3B68DAB20C4997F907301201C4
:1002CC00D2B20B4483F800230AE03B68DAB2084947
:1002DC00FB7903F00F03043B1201D2B20B441A76E4
:1002EC0000BF0C37BD4680BC704700BF00E100E08A
:1002FC0000ED00E080B489B000AFF860B9607A60BE
:10030C00FB6803F00703FB61FB69C3F10703042BD4
:10031C0028BF0423BB61FB690433062B02D9FB699C
:10032C00033B00E000237B614FF0FF32BB6902FA14
:10033C0003F3DA43BB681A407B699A404FF0FF31F4
:10034C007B6901FA03F3D9437B680B4013431846CE
:10035C002437BD4680BC704780B582B000AF786052
:10036C007B68013BB3F1807F01D301230FE00A4A84
:10037C007B68013B53600F214FF0FF30FFF790FF7C
:10038C00054B00229A60044B07221A600023184682
:10039C000837BD4680BD00BF10E000E080B582B0DC
:1003AC0000AF78607868FFF72DFF00BF0837BD46B7
:1003BC0080BD80B586B000AF0346B9607A60FB7330
:1003CC0000237B61FFF742FF78617A68B96878692E
:1003DC00FFF790FF024697F90F3011461846FFF7CA
:1003EC005FFF00BF1837BD4680BD80B582B000AF3F
:1003FC000346FB7197F907301846FFF735FF00BF2E
:10040C000837BD4680BD80B582B000AF7860786893
:10041C00FFF7A2FF034618460837BD4680BD000013
:10042C0080B48BB000AF7860396000237B6200230E
:10043C003B6269E101227B6A02FA03F3FB613B68D0
:10044C001B68FA691340BB61BA69FB699A4240F0B8
:10045C0058813B685B689A4A93425ED0984A9342B3
:10046C0075D8984A934258D0964A93426FD8964A78
:10047C00934252D0944A934269D8944A93424CD0B6
:10048C00924A934263D8924A934246D0904A9342FE
:10049C005DD8122B2AD8122B59D801A252F823F06E
:1004AC00270500080105000813050008550500087C
:1004BC005B0500085B0500085B0500085B05000890
:1004CC005B0500085B0500085B0500085B05000880
:1004DC005B0500085B0500085B0500085B05000870
:1004EC005B050008090500081D050008794A9342C0
:1004FC0013D02CE03B68DB683B6229E03B68DB688F
:10050C0004333B6224E03B68DB6808333B621FE04A
:10051C003B68DB680C333B621AE03B689B68002B42
:10052C0002D104233B6213E03B689B68012B05D18D
:10053C0008233B627B68FA691A6109E008233B6275
:10054C007B68FA695A6103E000233B6200E000BF5C
:10055C00BB69FF2B01D87B6801E07B6804337B61AE
:10056C00BB69FF2B02D87B6A9B0002E07B6A083BCD
:10057C009B003B617B691A680F213B6901FA03F30D
:10058C00DB431A40396A3B6901FA03F31A437B696E
:10059C001A603B685B6803F08053002B00F0B1805D
:1005AC004D4B9B694C4A43F0010393614A4B9B6949
:1005BC0003F00103BB60BB68484A7B6A9B080233AB
:1005CC0052F82330FB607B6A03F003039B000F227D
:1005DC0002FA03F3DB43FA681340FB607B68404A82
:1005EC00934213D07B683F4A93420DD07B683E4ABE
:1005FC00934207D07B683D4A934201D1032306E026
:10060C00042304E0022302E0012300E000237A6AC1
:10061C0002F0030292009340FA681343FB602F49E7
:10062C007B6A9B080233FA6841F823203B685B68BD
:10063C0003F48033002B06D02D4B1A682C49BB6970
:10064C0013430B6006E02A4B1A68BB69DB4328494D
:10065C0013400B603B685B6803F40033002B06D03F
:10066C00234B5A682249BB6913434B6006E0204B6D
:10067C005A68BB69DB431E4913404B603B685B689F
:10068C0003F48013002B06D0194B9A681849BB69E8
:10069C0013438B6006E0164B9A68BB69DB43144925
:1006AC0013408B603B685B6803F40013002B21D074
:1006BC000F4BDA680E49BB691343CB6021E000BFD6
:1006CC000000321000003110000022100000211038
:1006DC000000121000001110001002400000014038
:1006EC0000080140000C01400010014000140140C2
:1006FC00000401400B4BDA68BB69DB43094913402A
:10070C00CB607B6A01337B623B681A687B6A22FA96
:10071C0003F3002B7FF48EAE00BF00BF2C37BD4619
:10072C0080BC70470004014080B485B000AF786095
:10073C000B467B807B689A687B881340002B02D029
:10074C000123FB7301E00023FB73FB7B184614377A
:10075C00BD4680BC704780B483B000AF78600B4658
:10076C007B8013467B707B78002B03D07A887B6868
:10077C001A6103E07B881A047B681A6100BF0C378E
:10078C00BD4680BC7047000080B586B000AF786075
:10079C007B68002B01D101236CE27B681B6803F0A2
:1007AC000103002B00F08780924B5B6803F00C0375
:1007BC00042B0CD08F4B5B6803F00C03082B12D16D
:1007CC008C4B5B6803F48033B3F5803F0BD1894BC2
:1007DC001B6803F40033002B6CD07B685B68002B28
:1007EC0068D1012346E27B685B68B3F5803F06D194
:1007FC00804B1B687F4A43F4803313602EE07B6888
:10080C005B68002B0CD17B4B1B687A4A23F480333A
:10081C001360784B1B68774A23F4802313601DE028
:10082C007B685B68B3F5A02F0CD1724B1B68714AC7
:10083C0043F4802313606F4B1B686E4A43F4803380
:10084C0013600BE06B4B1B686A4A23F48033136014
:10085C00684B1B68674A23F4802313607B685B68D2
:10086C00002B13D0FFF7C4FC386108E0FFF7C0FC85
:10087C0002463B69D31A642B01D90323FAE15D4B81
:10088C001B6803F40033002BF0D014E0FFF7B0FC2E
:10089C00386108E0FFF7ACFC02463B69D31A642BC5
:1008AC0001D90323E6E1534B1B6803F40033002BFF
:1008BC00F0D100E000BF7B681B6803F00203002B43
:1008CC0063D04C4B5B6803F00C03002B0BD0494BF3
:1008DC005B6803F00C03082B1CD1464B5B6803F4DC
:1008EC008033002B16D1434B1B6803F00203002B03
:1008FC0005D07B681B69012B01D00123BAE13D4B6C
:10090C001B6823F0F8027B685B69DB0039491343F1
:10091C000B603AE07B681B69002B20D0364B012220
:10092C001A60FFF765FC386108E0FFF761FC0246CE
:10093C003B69D31A022B01D903239BE12D4B1B6876
:10094C0003F00203002BF0D02A4B1B6823F0F802B3
:10095C007B685B69DB00274913430B6015E0264B72
:10096C0000221A60FFF744FC386108E0FFF740FCF6
:10097C0002463B69D31A022B01D903237AE11D4BA2
:10098C001B6803F00203002BF0D17B681B6803F09B
:10099C000803002B3AD07B689B69002B19D0174BAE
:1009AC0001221A60FFF724FC386108E0FFF720FCF5
:1009BC0002463B69D31A022B01D903235AE10D4B92
:1009CC005B6A03F00203002BF0D0012000F0D8FA90
:1009DC001CE00A4B00221A60FFF70AFC38610FE09A
:1009EC00FFF706FC02463B69D31A022B08D90323F6
:1009FC0040E100BF0010024000004242800442422D
:100A0C009E4B5B6A03F00203002BE9D17B681B68E9
:100A1C0003F00403002B00F0A6800023FB75974B1A
:100A2C00DB6903F08053002B0DD1944BDB69934AA7
:100A3C0043F08053D361914BDB6903F08053BB606F
:100A4C00BB680123FB758E4B1B6803F48073002B72
:100A5C0018D18B4B1B688A4A43F480731360FFF7E1
:100A6C00C7FB386108E0FFF7C3FB02463B69D31AAA
:100A7C00642B01D90323FDE0814B1B6803F48073C5
:100A8C00002BF0D07B68DB68012B06D17B4B1B6AFB
:100A9C007A4A43F0010313622DE07B68DB68002B7C
:100AAC000CD1764B1B6A754A23F001031362734B0E
:100ABC001B6A724A23F0040313621CE07B68DB6838
:100ACC00052B0CD16D4B1B6A6C4A43F0040313626B
:100ADC006A4B1B6A694A43F0010313620BE0674BD4
:100AEC001B6A664A23F001031362644B1B6A634A58
:100AFC0023F0040313627B68DB68002B15D0FFF72F
:100B0C0077FB38610AE0FFF773FB02463B69D31AA7
:100B1C0041F28832934201D90323ABE0574B1B6A55
:100B2C0003F00203002BEED014E0FFF761FB3861F9
:100B3C000AE0FFF75DFB02463B69D31A41F28832AB
:100B4C00934201D9032395E04C4B1B6A03F002033B
:100B5C00002BEED1FB7D012B05D1484BDB69474ABD
:100B6C0023F08053D3617B68DB69002B00F081801C
:100B7C00424B5B6803F00C03082B61D07B68DB698C
:100B8C00022B46D13F4B00221A60FFF731FB386134
:100B9C0008E0FFF72DFB02463B69D31A022B01D963
:100BAC00032367E0354B1B6803F00073002BF0D177
:100BBC007B681B6AB3F5803F08D1304B5B6823F42C
:100BCC0000327B689B682D4913434B602B4B5B6851
:100BDC0023F474127B68196A7B685B6A0B432749A0
:100BEC0013434B60274B01221A60FFF701FB38615E
:100BFC0008E0FFF7FDFA02463B69D31A022B01D934
:100C0C00032337E01D4B1B6803F00073002BF0D05F
:100C1C002FE01C4B00221A60FFF7EAFA386108E05B
:100C2C00FFF7E6FA02463B69D31A022B01D90323DC
:100C3C0020E0124B1B6803F00073002BF0D118E07E
:100C4C007B68DB69012B01D1012313E00B4B5B6843
:100C5C00FB60FB6803F480327B681B6A9A4206D106
:100C6C00FB6803F470127B685B6A9A4201D0012323
:100C7C0000E0002318461837BD4680BD0010024026
:100C8C00007000406000424280B584B000AF7860D4
:100C9C0039607B68002B01D10123D0E06A4B1B68C3
:100CAC0003F007033A689A4210D9674B1B6823F08C
:100CBC00070265493B6813430B60634B1B6803F0E9
:100CCC0007033A689A4201D00123B8E07B681B689D
:100CDC0003F00203002B20D07B681B6803F0040395
:100CEC00002B05D0594B5B68584A43F4E0635360C2
:100CFC007B681B6803F00803002B05D0534B5B6823
:100D0C00524A43F460535360504B5B6823F0F0023B
:100D1C007B689B684D4913434B607B681B6803F0F1
:100D2C000103002B40D07B685B68012B07D1474B3C
:100D3C001B6803F40033002B15D101237FE07B6883
:100D4C005B68022B07D1414B1B6803F00073002B2F
:100D5C0009D1012373E03D4B1B6803F00203002B08
:100D6C0001D101236BE0394B5B6823F003027B68F4
:100D7C005B68364913434B60FFF73AFAF8600AE0B8
:100D8C00FFF736FA0246FB68D31A41F288329342D7
:100D9C0001D9032353E02D4B5B6803F00C027B68F5
:100DAC005B689B009A42EBD1274B1B6803F007034F
:100DBC003A689A4210D2244B1B6823F0070222494E
:100DCC003B6813430B60204B1B6803F007033A6826
:100DDC009A4201D0012332E07B681B6803F00403C4
:100DEC00002B08D0194B5B6823F4E0627B68DB684E
:100DFC00164913434B607B681B6803F00803002BF8
:100E0C0009D0124B5B6823F460527B681B69DB00D2
:100E1C000E4913434B6000F021F802460B4B5B6804
:100E2C001B0903F00F030A49CB5C22FA03F3094AAE
:100E3C001360094B1B681846FFF798F900231846F6
:100E4C001037BD4680BD00BF00200240001002409C
:100E5C00FC260008140000200000002090B48AB08A
:100E6C0000AF2A4B3C1D0FCB84E80F0040F201234E
:100E7C003B800023FB610023BB6100237B620023CA
:100E8C007B6100233B62224B5B68FB61FB6903F0D7
:100E9C000C03042B02D0082B03D02DE01D4B3B621E
:100EAC002DE0FB699B0C03F00F0307F128021344A0
:100EBC0013F8243C7B61FB6903F48033002B13D0C3
:100ECC00134B5B685B0C03F0010307F1280213441E
:100EDC0013F8283CBB617B690E4A02FB03F2BB6929
:100EEC00B2FBF3F37B6204E07B690B4A02FB03F376
:100EFC007B627B6A3B6202E0064B3B6200BF3B6A53
:100F0C0018462837BD4690BC704700BFEC26000839
:100F1C000010024000127A0000093D0080B400AFBE
:100F2C00024B1B681846BD4680BC7047140000205D
:100F3C0080B500AFFFF7F2FF0246054B5B681B0A5A
:100F4C0003F007030349CB5C22FA03F3184680BD78
:100F5C00001002400C27000880B500AFFFF7DEFF41
:100F6C000246054B5B68DB0A03F007030349CB5CC5
:100F7C0022FA03F3184680BD001002400C2700082B
:100F8C0080B485B000AF78600A4B1B680A4AA2FB9C
:100F9C0003235B0A7A6802FB03F3FB6000BFFB6868
:100FAC005A1EFA60002BF9D100BF00BF1437BD46A2
:100FBC0080BC704714000020D34D621080B582B005
:100FCC0000AF78607B68002B01D101231DE07B68AA
:100FDC0093F83D30DBB2002B06D17B68002283F8FE
:100FEC003C20786801F04CFA7B68022283F83D20A3
:100FFC007B681A687B6804331946104600F01CFAAB
:10100C007B68012283F83D20002318460837BD4633
:10101C0080BD80B485B000AF78607B681B68DA68EF
:10102C007B681B6842F00102DA607B681B689B6876
:10103C0003F00703FB60FB68062B07D07B681B687B
:10104C001A687B681B6842F001021A60002318467C
:10105C001437BD4680BC704780B582B000AF786055
:10106C007B681B681B6903F00203022B22D17B688F
:10107C001B68DB6803F00203022B1BD17B681B6827
:10108C006FF002021A617B6801221A777B681B6879
:10109C009B6903F00303002B03D0786800F0B1F9CF
:1010AC0005E0786800F0A4F9786800F0B3F97B6883
:1010BC0000221A777B681B681B6903F00403042B5E
:1010CC0022D17B681B68DB6803F00403042B1BD163
:1010DC007B681B686FF004021A617B6802221A7726
:1010EC007B681B689B6903F44073002B03D0786802
:1010FC0000F087F905E0786800F07AF9786800F07C
:10110C0089F97B6800221A777B681B681B6903F0DE
:10111C000803082B22D17B681B68DB6803F00803EB
:10112C00082B1BD17B681B686FF008021A617B6867
:10113C0004221A777B681B68DB6903F00303002B1E
:10114C0003D0786800F05DF905E0786800F050F99C
:10115C00786800F05FF97B6800221A777B681B685F
:10116C001B6903F01003102B22D17B681B68DB6812
:10117C0003F01003102B1BD17B681B686FF010025F
:10118C001A617B6808221A777B681B68DB6903F499
:10119C004073002B03D0786800F033F905E07868D1
:1011AC0000F026F9786800F035F97B6800221A7790
:1011BC007B681B681B6903F00103012B0ED17B6854
:1011CC001B68DB6803F00103012B07D17B681B68EC
:1011DC006FF001021A61786801F078F97B681B687E
:1011EC001B6903F08003802B0ED17B681B68DB68C6
:1011FC0003F08003802B07D17B681B686FF08002A3
:10120C001A61786800F05DFA7B681B681B6903F053
:10121C004003402B0ED17B681B68DB6803F0400356
:10122C00402B07D17B681B686FF040021A6178680D
:10123C0000F0F9F87B681B681B6903F02003202B76
:10124C000ED17B681B68DB6803F02003202B07D1D1
:10125C007B681B686FF020021A61786800F028FA2E
:10126C0000BF0837BD4680BD80B584B000AF786044
:10127C0039607B6893F83C30012B01D10223B3E039
:10128C007B68012283F83C207B68022283F83D2096
:10129C007B681B689B68FB60FB6823F07703FB6033
:1012AC00FB6823F47F43FB607B681B68FA689A60D9
:1012BC003B681B68B3F5005F3ED0B3F5005F00F2EE
:1012CC008780B3F5805F00F08580B3F5805F7FD8B1
:1012DC00702B1AD0702B7BD8602B50D0602B77D80A
:1012EC00502B3CD0502B73D8402B58D0402B6FD860
:1012FC00302B64D0302B6BD8202B60D0202B67D8B0
:10130C00002B5CD0102B5AD062E07B6818683B68CD
:10131C0099683B685A683B68DB6800F066F97B6843
:10132C001B689B68FB60FB6843F07703FB607B6882
:10133C001B68FA689A604EE07B6818683B6899688D
:10134C003B685A683B68DB6800F04FF97B681B68A8
:10135C009A687B681B6842F480429A603BE07B6829
:10136C0018683B6859683B68DB681A4600F0C6F899
:10137C007B681B685021184600F01DF92BE07B6838
:10138C0018683B6859683B68DB681A4600F0E4F85B
:10139C007B681B686021184600F00DF91BE07B6828
:1013AC0018683B6859683B68DB681A4600F0A6F879
:1013BC007B681B684021184600F0FDF80BE07B6849
:1013CC001A683B681B681946104600F0F4F802E0F6
:1013DC0000BF00E000BF7B68012283F83D207B68E2
:1013EC00002283F83C20002318461037BD4680BDF0
:1013FC0080B483B000AF786000BF0C37BD4680BCB2
:10140C00704780B483B000AF786000BF0C37BD4626
:10141C0080BC704780B483B000AF786000BF0C37DD
:10142C00BD4680BC704780B483B000AF786000BF0D
:10143C000C37BD4680BC704780B485B000AF786077
:10144C0039607B681B68FB607B68294A93420BD030
:10145C007B68B3F1804F07D07B68264A934203D058
:10146C007B68254A934208D1FB6823F07003FB602C
:10147C003B685B68FA681343FB607B681C4A9342C9
:10148C000BD07B68B3F1804F07D07B68194A93422D
:10149C0003D07B68184A934208D1FB6823F440734D
:1014AC00FB603B68DB68FA681343FB60FB6823F066
:1014BC0080023B685B691343FB607B68FA681A60C7
:1014CC003B689A687B68DA623B681A687B689A6248
:1014DC007B68074A934203D13B681A697B681A639D
:1014EC007B6801225A6100BF1437BD4680BC70472F
:1014FC00002C0140000400400008004080B487B07C
:10150C0000AFF860B9607A60FB681B6A7B61FB68AE
:10151C001B6A23F00102FB681A62FB689B693B6142
:10152C003B6923F0F0033B617B681B013A69134371
:10153C003B617B6923F00A037B617A69BB681343C7
:10154C007B61FB683A699A61FB687A691A6200BF31
:10155C001C37BD4680BC704780B487B000AFF860C4
:10156C00B9607A60FB681B6A23F01002FB681A6290
:10157C00FB689B697B61FB681B6A3B617B6923F49D
:10158C0070437B617B681B037A6913437B613B6906
:10159C0023F0A0033B61BB681B013A6913433B6119
:1015AC00FB687A699A61FB683A691A6200BF1C375A
:1015BC00BD4680BC704780B485B000AF78603960A0
:1015CC007B689B68FB60FB6823F07003FB603A68E8
:1015DC00FB68134343F00703FB607B68FA689A606F
:1015EC0000BF1437BD4680BC704780B487B000AFD5
:1015FC00F860B9607A603B60FB689B687B617B69D3
:10160C0023F47F437B613B681A027B681A43BB68F7
:10161C0013437A6913437B61FB687A699A6000BF54
:10162C001C37BD4680BC704780B485B000AF786075
:10163C0039607B6893F83C30012B01D1022332E0F6
:10164C007B68012283F83C207B68022283F83D20D2
:10165C007B681B685B68FB607B681B689B68BB6076
:10166C00FB6823F07003FB603B681B68FA6813434C
:10167C00FB60BB6823F08003BB603B685B68BA68A7
:10168C001343BB607B681B68FA685A607B681B68F5
:10169C00BA689A607B68012283F83D207B6800223F
:1016AC0083F83C20002318461437BD4680BC704795
:1016BC0080B483B000AF786000BF0C37BD4680BCEF
:1016CC00704780B483B000AF786000BF0C37BD4664
:1016DC0080BC704780B582B000AF78607B68002B0F
:1016EC0001D101233FE07B6893F83930DBB2002B4A
:1016FC0006D17B68002283F83820786800F046FF1A
:10170C007B68242283F839207B681B68DA687B6845
:10171C001B6822F40052DA60786800F029F87B68C4
:10172C001B681A697B681B6822F490421A617B68FB
:10173C001B685A697B681B6822F02A025A617B6815
:10174C001B68DA687B681B6842F40052DA607B68BD
:10175C000022DA637B68202283F839207B68202200
:10176C0083F83A20002318460837BD4680BD000098
:10177C0080B584B000AF78607B681B681B6923F46C
:10178C0040517B68DA687B681B680A431A617B6886
:10179C009A687B681B691A437B685B691343FB601F
:1017AC007B681B68DB6823F4B05323F00C037A6866
:1017BC001268F9680B43D3607B681B685B6923F480
:1017CC0040717B689A697B681B680A435A617B6825
:1017DC001B68524A93424ED1FFF7BEFBB860BA6801
:1017EC0013469B0013449A001A447B685B689B0069
:1017FC00B2FBF3F34A4AA2FB03235B091901BA6853
:10180C0013469B0013449A001A447B685B689B0048
:10181C00B2FBF3F2424BA3FB02035B09642000FB17
:10182C0003F3D31A1B0132333D4AA2FB03235B099A
:10183C0003F0F0031944BA6813469B0013449A0052
:10184C001A447B685B689B00B2FBF3F2344BA3FB3E
:10185C0002035B09642000FB03F3D31A1B01323330
:10186C002F4AA2FB03235B0903F00F027B681B6862
:10187C000A449A604DE0FFF75BFBB860BA68134608
:10188C009B0013449A001A447B685B689B00B2FB74
:10189C00F3F3234AA2FB03235B091901BA6813462D
:1018AC009B0013449A001A447B685B689B00B2FB54
:1018BC00F3F21B4BA3FB02035B09642000FB03F355
:1018CC00D31A1B013233164AA2FB03235B0903F024
:1018DC00F0031944BA6813469B0013449A001A4447
:1018EC007B685B689B00B2FBF3F20D4BA3FB02031E
:1018FC005B09642000FB03F3D31A1B013233084A43
:10190C00A2FB03235B0903F00F027B681B680A44EC
:10191C009A6000BF1037BD4680BD00BF0038014043
:10192C001F85EB5180B500AF164B9B88032B1ED047
:10193C00032B24DC012B02D0022B0ED01FE0114B09
:10194C0000229A8000224FF480510F48FEF703FFCB
:10195C000021052000F0A6FB11E00A4B00229A8022
:10196C0001224FF480510848FEF7F5FE07E0054BC5
:10197C0000229A800021052000F094FB00BF00BFDC
:10198C0080BD00BF38000020000C014080B582B043
:10199C0000AF0023FB710AE0FA79484911F82230B4
:1019AC006FF3000301F82230FB790133FB71FB79F3
:1019BC00002BF1D080214248FEF7B6FE0346002BE7
:1019CC0004D13E4A137843F0010313700023FB71DA
:1019DC0066E0FB79394A12F82330C3F30003DBB21B
:1019EC001846FB79354A12F82330C3F30003DAB2F8
:1019FC00FB79324911F82330C3F3C003DBB25340F7
:101A0C00DBB20340DBB2FA7903F00103D8B22B4905
:101A1C0011F8223060F3410301F82230FB79274A98
:101A2C0012F82330C3F30003DAB2FB79234911F81F
:101A3C002330C3F34003DBB25340D9B2FB791F4AC6
:101A4C0012F82330C3F3C003DBB2FA794B40D8B29F
:101A5C001A4911F8223060F3820301F82230FB7925
:101A6C00FA79164911F82330C3F30003D8B213499D
:101A7C0011F8223060F3C30301F82230FB790F4ACE
:101A8C0012F82330C3F3C003DBB2002B05D1FB7972
:101A9C000A4A9B00134400225A80FB790133FB71E4
:101AAC00FB79002B95D000F00DF800F01DF800F03C
:101ABC002DF800BF0837BD4680BD00BF38000020A0
:101ACC00000C014080B400AF064B1B7803F00203FE
:101ADC00DBB2002B02D0034B01229A8000BFBD4623
:101AEC0080BC70473800002080B400AF064B1B78D8
:101AFC0003F00403DBB2002B02D0034B02229A80CA
:101B0C0000BFBD4680BC70473800002080B400AFD9
:101B1C000D4B1B7803F00803DBB2002B10D00A4BE3
:101B2C005B883B2B05D8084B5B8801339AB2064B7C
:101B3C005A80054B5B883B2B02D1034B03229A80C6
:101B4C0000BFBD4680BC70473800002080B582B015
:101B5C0000AF864B1B78032B00F2048101A252F8D4
:101B6C0023F000BF811B0008A11B0008ED1B00081F
:101B7C00471C00084FF480417D48FEF7D5FD034615
:101B8C00002B00F0EA807B4B00221A80774B01225D
:101B9C001A70E2E04FF480417548FEF7C5FD03462C
:101BAC00002B06D0734B1B8801339AB2714B1A80F1
:101BBC00D8E0704B1B88432B03D96C4B00221A7056
:101BCC00D0E06C4B1B88342B03D8684B00221A7066
:101BDC00C8E0684B00221A80644B02221A70C1E0E4
:101BEC004FF480416248FEF79FFD0346002B09D15C
:101BFC00614B01221A705F4B1B8801339AB25D4B0B
:101C0C001A80ACE05C4B1B78002B00F0A8805A4B80
:101C1C0000221A70574B1B88342B03D8554B1B884A
:101C2C001E2B03D8514B00221A709BE0514B002203
:101C3C001A804E4B03221A7091E04FF480414C48AD
:101C4C00FEF772FD0346002B09D04B4B01221A7094
:101C5C00484B1B8801339AB2464B1A8081E0464BA5
:101C6C001B78002B7DD0454B1B780133DAB2434BEC
:101C7C001A70414B00221A703E4B1B880E2B1BD83E
:101C8C003C4B1B88092B17D93D4B1B781A463D4BF7
:101C9C009B5C3B4A12785B00D9B23A4B9954384B57
:101CAC001B781A46374B9B5C354A127843F001037C
:101CBC00D9B2344B995412E02E4B1B88092B0ED8F9
:101CCC002C4B1B88022B0AD92D4B1B781A462D4BFB
:101CDC009B5C2B4A12785B00D9B22A4B9954254B4A
:101CEC0000221A80254B1B7803F00703DBB2002B74
:101CFC0005D1234B1B780133DAB2214B1A701F4BE1
:101D0C001B78402B2DD91F4B1B78242B1BD1002269
:101D1C004FF480511648FEF71EFD1B4B1B78DBB2AF
:101D2C000133DAB2184B1A700023FB7108E0FA7910
:101D3C00FB791449895C154AD154FB790133FB7149
:101D4C00FB79072BF3D90E4B00221A700B4B002298
:101D5C001A70064B00221A7003E000BF02E000BFAD
:101D6C0000E000BF0837BD4680BD00BF400000202A
:101D7C00000C01403E0000204200002041000020E9
:101D8C004E000020440000204F0000205000002096
:101D9C0080B500AF00224FF400510A48FEF7DBFC7F
:101DAC00094B00221A70094B00221A80084B0022A2
:101DBC001A70084B00221A70074B00221A7000BFD1
:101DCC0080BD00BF000C01405C0000205E000020C4
:101DDC0060000020610000205B00002080B500AF97
:101DEC00054B00221A7000224FF400510348FEF7F5
:101DFC00B2FC00BF80BD00BF5A000020000C0140A7
:101E0C0080B483B000AF0346FB71074B01221A70FC
:101E1C00064AFB791370064B00221A7000BF0C3770
:101E2C00BD4680BC704700BF5A00002062000020F5
:101E3C005B00002080B500AF7A4B1A787A4B1B7888
:101E4C009A4207D3FFF7CAFF764B00221A70764BE3
:101E5C0000221A70754B1B78002B00F0D580744B48
:101E6C001B78042B00F2DB8001A252F823F000BF98
:101E7C00911E0008C11E0008F11E0008691F000811
:101E8C00DB1F000801224FF400516A48FEF763FC87
:101E9C00694B1B8801339AB2674B1A80664B1B88BF
:101EAC003B2B40F2B380624B01221A70624B002232
:101EBC001A80ABE000224FF400515E48FEF74BFC59
:101ECC005D4B1B8801339AB25B4B1A805A4B1B88B3
:101EDC00282B40F29D80584B00221A80544B022232
:101EEC001A7095E0554B1B781A46554B9B5C1A465D
:101EFC00544B1B7802FA03F303F08003002B16D02B
:101F0C0001224FF400514B48FEF725FC4A4B1B882D
:101F1C0001339AB2484B1A80474B1B880C2B79D94A
:101F2C00454B00221A80424B03221A7072E00122A8
:101F3C004FF400513F48FEF70EFC3F4B1B8801331A
:101F4C009AB23D4B1A803C4B1B88052B62D93A4BFD
:101F5C0000221A80364B03221A705BE000224FF4E9
:101F6C0000513448FEF7F7FB334B1B8801339AB210
:101F7C00314B1A80304B1B880D2B4DD92E4B002228
:101F8C001A80304B1B780133DAB22E4B1A702D4B62
:101F9C001B78072B17D92B4B00221A70274B1B7859
:101FAC000133DAB2254B1A70244B1B78072B06D958
:101FBC00224B00221A701E4B04221A702CE01C4B70
:101FCC0002221A7028E01A4B02221A7024E0002216
:101FDC004FF400511748FEF7BEFB174B1B8801331B
:101FEC009AB2154B1A80144B1B881D2B16D90D4B0E
:101FFC001B780133DAB20B4B1A700F4B00221A808C
:10200C000B4B00221A7009E000BF08E000BF06E08D
:10201C0000BF04E000BF02E000BF00E000BF00BF53
:10202C0080BD00BF5B000020620000205A00002031
:10203C005C000020000C01405E00002060000020CD
:10204C00080000206100002090B482B000AF04466C
:10205C00084611461A462346FB710346BB710B46D4
:10206C007B7113463B710E4AFB7913700C4ABB799A
:10207C0053700B4A7B799370094A3B79D370084AA9
:10208C003B7C1371064A3B7D5371054A3B7E937131
:10209C00034A3B7FD37100BF0837BD4690BC7047E5
:1020AC000800002080B588B004AF03460A46FB71D7
:1020BC001346BB710023FB73FA7BBB791343FB7391
:1020CC00F97B3423039300230293222301932223CD
:1020DC0000935B2359222420FFF7B6FFFB791846A7
:1020EC00FFF78EFE00BF1037BD4680BD80B588B0AF
:1020FC0000AF07F1100300221A605A609A60DA6090
:10210C00344B9B69334A43F020039361314B9B69F9
:10211C0003F02003FB60FB682E4B9B692D4A43F0B8
:10212C00040393612B4B9B6903F00403BB60BB68F6
:10213C00284B9B69274A43F008039361254B9B6905
:10214C0003F008037B607B680022B0212248FEF775
:10215C0002FB002243F203012048FEF7FCFAB023F5
:10216C003B6101237B610023BB610223FB6107F10F
:10217C00100319461848FEF753F943F203033B6169
:10218C0001237B610023BB610223FB6107F1100378
:10219C0019461248FEF744F94FF480433B61002383
:1021AC007B610023BB6107F1100319460B48FEF756
:1021BC0037F980233B6100237B610123BB6107F16D
:1021CC00100319460548FEF72BF900BF2037BD4612
:1021DC0080BD00BF0010024000080140000C01400F
:1021EC0080B500AFFDF7ACFF00F018F8FFF77EFFED
:1021FC0000F0FAF800F0A0F9FFF7CAFD0548FEF769
:10220C0008FF01224FF480510348FEF7A4FAFFF7B0
:10221C0089FBFCE764000020000C014080B590B005
:10222C0000AF07F1180328220021184600F044FAE9
:10223C003B1D00221A605A609A60DA601A61012311
:10224C00BB614FF48033FB6100233B620123BB6213
:10225C0002237B634FF48033BB634FF4E013FB63C7
:10226C0007F118031846FEF78FFA0346002B01D02E
:10227C0000F019F80F237B600223BB600023FB6086
:10228C004FF480633B6100237B613B1D02211846A8
:10229C00FEF7FAFC0346002B01D000F004F800BF57
:1022AC004037BD4680BD80B400AF00BFBD4680BC8A
:1022BC007047000080B485B000AF154B9B69144A81
:1022CC0043F001039361124B9B6903F00103BB6064
:1022DC00BB680F4BDB690E4A43F08053D3610C4B48
:1022EC00DB6903F080537B607B680A4B5B68FB60A7
:1022FC00FB6823F0E063FB60FB6843F08073FB60DA
:10230C00044AFB68536000BF1437BD4680BC70475D
:10231C00001002400000014080B400AF00BFBD4679
:10232C0080BC704780B400AFFEE780B400AFFEE71E
:10233C0080B400AFFEE780B400AFFEE780B400AF1E
:10234C0000BFBD4680BC704780B400AF00BFBD4627
:10235C0080BC704780B400AF00BFBD4680BC7047E6
:10236C0080B500AFFDF732FF00BF80BD80B500AF78
:10237C000248FEF771FE00BF80BD00BF6400002064
:10238C0080B400AF154B1B68144A43F00103136073
:10239C00124B5A681149124B13404B600F4B1B6880
:1023AC000E4A23F0847323F4803313600B4B1B68A9
:1023BC000A4A23F480231360084B5B68074A23F412
:1023CC00FE035360054B4FF41F029A60054B4FF010
:1023DC0000629A6000BFBD4680BC7047001002408E
:1023EC000000FFF800ED00E080B586B000AF07F10B
:1023FC00080300221A605A609A60DA603B46002299
:10240C001A605A601C4B1D4A1A601B4B47225A60BB
:10241C00194B00229A60184B6322DA60164B00228B
:10242C001A61154B00229A611348FEF7C7FD03464B
:10243C00002B01D0FFF737FF4FF48053BB6007F13F
:10244C00080319460C48FEF70FFF0346002B01D07A
:10245C00FFF729FF00233B6000237B603B461946B6
:10246C000548FFF7E1F80346002B01D0FFF71BFFEF
:10247C0000BF1837BD4680BD64000020000400403A
:10248C0080B584B000AF78607B681B680D4A9342BE
:10249C0013D10D4BDB690C4A43F00203D3610A4B99
:1024AC00DB6903F00203FB60FB68002200211D20A6
:1024BC00FDF77FFF1D20FDF798FF00BF1037BD46CD
:1024CC0080BD00BF000400400010024080B582B007
:1024DC0000AF78607B681A68144B1B689A4221D154
:1024EC00134B1B780133DAB2114B1A70114B1B884A
:1024FC0001339AB20F4B1A800D4B1B78C82B04D1A9
:10250C000B4B00221A70FFF741FA0A4B1B8841F261
:10251C008832934202D1074B00221A80FFF78AFCC3
:10252C00FFF714FB00BF0837BD4680BD64000020D8
:10253C00A4000020A600002080B500AF114B124A69
:10254C001A60104B4FF4E1325A600E4B00229A6025
:10255C000C4B0022DA600B4B00221A61094B0C2247
:10256C005A61084B00229A61064B0022DA61054839
:10257C00FFF7B0F80346002B01D0FFF794FE00BF25
:10258C0080BD00BFA80000200038014080B588B095
:10259C0000AF786007F1100300221A605A609A604D
:1025AC00DA607B681B681C4A934231D11B4B9B69D8
:1025BC001A4A43F480439361184B9B6903F480439C
:1025CC00FB60FB68154B9B69144A43F00403936151
:1025DC00124B9B6903F00403BB60BB684FF40073A0
:1025EC003B6102237B610323FB6107F11003194656
:1025FC000B48FDF715FF4FF480633B6100237B61B3
:10260C000023BB6107F1100319460548FDF708FFCD
:10261C0000BF2037BD4680BD00380140001002408D
:10262C0000080140002103E00B4B5B584350043180
:10263C000A480B4B42189A42F6D30A4A02E000238E
:10264C0042F8043B084B9A42F9D3FFF799FE00F08D
:10265C000FF8FFF7C5FD70471C270008000000208D
:10266C001800002018000020E8000020FEE7000001
:10267C0070B500260C4D0D4C641BA410A64209D15C
:10268C0000F022F800260A4D0A4C641BA410A64246
:10269C0005D170BD55F8043B98470136EEE755F867
:1026AC00043B98470136F2E714270008142700086A
:1026BC00142700081827000803460244934200D14F
:1026CC00704703F8011BF9E7F8B500BFF8BC08BC6C
:1026DC009E467047F8B500BFF8BC08BC9E467047D4
:1026EC0002030405060708090A0B0C0D0E0F101047
:1026FC0000000000000000000102030406070809A6
:08270C000000000001020304BB
:042714003101000887
:042718000D010008A7
:10271C001000000001000000FF00FF00FF00FF00A0
:08272C00FF0000000024F4008E
:040000050800263198
:00000001FF
