:020000040800F2
:1000000000500020452900085525000861250008FA
:10001000672500086D250008732500080000000012
:10002000000000000000000000000000792500082A
:100030008525000800000000912500089D25000886
:100040008D2900088D2900088D2900088D290008B8
:100050008D2900088D2900088D2900088D290008A8
:100060008D2900088D2900088D2900088D29000898
:100070008D2900088D2900088D2900088D29000888
:100080008D2900088D2900088D2900088D29000878
:100090008D2900088D2900088D2900088D29000868
:1000A0008D2900088D2900088D2900088D29000858
:1000B0008D290008A92500088D2900088D29000830
:1000C0008D2900088D2900088D2900088D29000838
:1000D0008D2900088D2900088D2900088D29000828
:1000E0008D2900088D2900088D29000800000000D6
:1000F0000000000000000000000000000000000000
:0C01000000000000000000005FF808F1A3
:10010C0010B5054C237833B9044B13B10448AFF345
:10011C0000800123237010BD780000200000000037
:10012C007833000808B5034B1BB103490348AFF300
:10013C00008008BD000000007C000020783300081F
:10014C0080B500AF084B1B68074A43F010031360DF
:10015C00032000F023F9002000F008F802F0C2F9A7
:10016C000023184680BD00BF0020024080B582B03D
:10017C0000AF7860124B1A68124B1B7819464FF47B
:10018C007A73B3FBF1F3B2FBF3F3184600F03BF9CF
:10019C000346002B01D001230EE07B680F2B0AD8FD
:1001AC00002279684FF0FF3000F003F9064A7B68B3
:1001BC001360002300E0012318460837BD4680BDBC
:1001CC0010000020040000200000002080B400AFCC
:1001DC00054B1B781A46054B1B681344034A1360E6
:1001EC0000BFBD4680BC7047040000209400002076
:1001FC0080B400AF024B1B681846BD4680BC7047EC
:10020C009400002080B485B000AF78607B6803F068
:10021C000703FB600C4BDB68BB60BA684FF6FF034F
:10022C001340BB60FB681A02BB68134343F0BF6307
:10023C0043F40033BB60044ABB68D36000BF14377F
:10024C00BD4680BC704700BF00ED00E080B400AF3D
:10025C00044BDB681B0A03F007031846BD4680BC41
:10026C00704700BF00ED00E080B483B000AF0346E0
:10027C00FB7197F90730002B0BDBFB7903F01F02A6
:10028C00064997F907305B09012000FA02F241F8A0
:10029C00232000BF0C37BD4680BC704700E100E056
:1002AC0080B483B000AF03463960FB7197F9073017
:1002BC00002B0ADB3B68DAB20C4997F907301201C4
:1002CC00D2B20B4483F800230AE03B68DAB2084947
:1002DC00FB7903F00F03043B1201D2B20B441A76E4
:1002EC0000BF0C37BD4680BC704700BF00E100E08A
:1002FC0000ED00E080B489B000AFF860B9607A60BE
:10030C00FB6803F00703FB61FB69C3F10703042BD4
:10031C0028BF0423BB61FB690433062B02D9FB699C
:10032C00033B00E000237B614FF0FF32BB6902FA14
:10033C0003F3DA43BB681A407B699A404FF0FF31F4
:10034C007B6901FA03F3D9437B680B4013431846CE
:10035C002437BD4680BC704780B582B000AF786052
:10036C007B68013BB3F1807F01D301230FE00A4A84
:10037C007B68013B53600F214FF0FF30FFF790FF7C
:10038C00054B00229A60044B07221A600023184682
:10039C000837BD4680BD00BF10E000E080B582B0DC
:1003AC0000AF78607868FFF72DFF00BF0837BD46B7
:1003BC0080BD80B586B000AF0346B9607A60FB7330
:1003CC0000237B61FFF742FF78617A68B96878692E
:1003DC00FFF790FF024697F90F3011461846FFF7CA
:1003EC005FFF00BF1837BD4680BD80B582B000AF3F
:1003FC000346FB7197F907301846FFF735FF00BF2E
:10040C000837BD4680BD80B582B000AF7860786893
:10041C00FFF7A2FF034618460837BD4680BD000013
:10042C0080B48BB000AF7860396000237B6200230E
:10043C003B6269E101227B6A02FA03F3FB613B68D0
:10044C001B68FA691340BB61BA69FB699A4240F0B8
:10045C0058813B685B689A4A93425ED0984A9342B3
:10046C0075D8984A934258D0964A93426FD8964A78
:10047C00934252D0944A934269D8944A93424CD0B6
:10048C00924A934263D8924A934246D0904A9342FE
:10049C005DD8122B2AD8122B59D801A252F823F06E
:1004AC00270500080105000813050008550500087C
:1004BC005B0500085B0500085B0500085B05000890
:1004CC005B0500085B0500085B0500085B05000880
:1004DC005B0500085B0500085B0500085B05000870
:1004EC005B050008090500081D050008794A9342C0
:1004FC0013D02CE03B68DB683B6229E03B68DB688F
:10050C0004333B6224E03B68DB6808333B621FE04A
:10051C003B68DB680C333B621AE03B689B68002B42
:10052C0002D104233B6213E03B689B68012B05D18D
:10053C0008233B627B68FA691A6109E008233B6275
:10054C007B68FA695A6103E000233B6200E000BF5C
:10055C00BB69FF2B01D87B6801E07B6804337B61AE
:10056C00BB69FF2B02D87B6A9B0002E07B6A083BCD
:10057C009B003B617B691A680F213B6901FA03F30D
:10058C00DB431A40396A3B6901FA03F31A437B696E
:10059C001A603B685B6803F08053002B00F0B1805D
:1005AC004D4B9B694C4A43F0010393614A4B9B6949
:1005BC0003F00103BB60BB68484A7B6A9B080233AB
:1005CC0052F82330FB607B6A03F003039B000F227D
:1005DC0002FA03F3DB43FA681340FB607B68404A82
:1005EC00934213D07B683F4A93420DD07B683E4ABE
:1005FC00934207D07B683D4A934201D1032306E026
:10060C00042304E0022302E0012300E000237A6AC1
:10061C0002F0030292009340FA681343FB602F49E7
:10062C007B6A9B080233FA6841F823203B685B68BD
:10063C0003F48033002B06D02D4B1A682C49BB6970
:10064C0013430B6006E02A4B1A68BB69DB4328494D
:10065C0013400B603B685B6803F40033002B06D03F
:10066C00234B5A682249BB6913434B6006E0204B6D
:10067C005A68BB69DB431E4913404B603B685B689F
:10068C0003F48013002B06D0194B9A681849BB69E8
:10069C0013438B6006E0164B9A68BB69DB43144925
:1006AC0013408B603B685B6803F40013002B21D074
:1006BC000F4BDA680E49BB691343CB6021E000BFD6
:1006CC000000321000003110000022100000211038
:1006DC000000121000001110001002400000014038
:1006EC0000080140000C01400010014000140140C2
:1006FC00000401400B4BDA68BB69DB43094913402A
:10070C00CB607B6A01337B623B681A687B6A22FA96
:10071C0003F3002B7FF48EAE00BF00BF2C37BD4619
:10072C0080BC70470004014080B485B000AF786095
:10073C000B467B807B689A687B881340002B02D029
:10074C000123FB7301E00023FB73FB7B184614377A
:10075C00BD4680BC704780B483B000AF78600B4658
:10076C007B8013467B707B78002B03D07A887B6868
:10077C001A6103E07B881A047B681A6100BF0C378E
:10078C00BD4680BC7047000080B586B000AF786075
:10079C007B68002B01D101236CE27B681B6803F0A2
:1007AC000103002B00F08780924B5B6803F00C0375
:1007BC00042B0CD08F4B5B6803F00C03082B12D16D
:1007CC008C4B5B6803F48033B3F5803F0BD1894BC2
:1007DC001B6803F40033002B6CD07B685B68002B28
:1007EC0068D1012346E27B685B68B3F5803F06D194
:1007FC00804B1B687F4A43F4803313602EE07B6888
:10080C005B68002B0CD17B4B1B687A4A23F480333A
:10081C001360784B1B68774A23F4802313601DE028
:10082C007B685B68B3F5A02F0CD1724B1B68714AC7
:10083C0043F4802313606F4B1B686E4A43F4803380
:10084C0013600BE06B4B1B686A4A23F48033136014
:10085C00684B1B68674A23F4802313607B685B68D2
:10086C00002B13D0FFF7C4FC386108E0FFF7C0FC85
:10087C0002463B69D31A642B01D90323FAE15D4B81
:10088C001B6803F40033002BF0D014E0FFF7B0FC2E
:10089C00386108E0FFF7ACFC02463B69D31A642BC5
:1008AC0001D90323E6E1534B1B6803F40033002BFF
:1008BC00F0D100E000BF7B681B6803F00203002B43
:1008CC0063D04C4B5B6803F00C03002B0BD0494BF3
:1008DC005B6803F00C03082B1CD1464B5B6803F4DC
:1008EC008033002B16D1434B1B6803F00203002B03
:1008FC0005D07B681B69012B01D00123BAE13D4B6C
:10090C001B6823F0F8027B685B69DB0039491343F1
:10091C000B603AE07B681B69002B20D0364B012220
:10092C001A60FFF765FC386108E0FFF761FC0246CE
:10093C003B69D31A022B01D903239BE12D4B1B6876
:10094C0003F00203002BF0D02A4B1B6823F0F802B3
:10095C007B685B69DB00274913430B6015E0264B72
:10096C0000221A60FFF744FC386108E0FFF740FCF6
:10097C0002463B69D31A022B01D903237AE11D4BA2
:10098C001B6803F00203002BF0D17B681B6803F09B
:10099C000803002B3AD07B689B69002B19D0174BAE
:1009AC0001221A60FFF724FC386108E0FFF720FCF5
:1009BC0002463B69D31A022B01D903235AE10D4B92
:1009CC005B6A03F00203002BF0D0012000F0D8FA90
:1009DC001CE00A4B00221A60FFF70AFC38610FE09A
:1009EC00FFF706FC02463B69D31A022B08D90323F6
:1009FC0040E100BF0010024000004242800442422D
:100A0C009E4B5B6A03F00203002BE9D17B681B68E9
:100A1C0003F00403002B00F0A6800023FB75974B1A
:100A2C00DB6903F08053002B0DD1944BDB69934AA7
:100A3C0043F08053D361914BDB6903F08053BB606F
:100A4C00BB680123FB758E4B1B6803F48073002B72
:100A5C0018D18B4B1B688A4A43F480731360FFF7E1
:100A6C00C7FB386108E0FFF7C3FB02463B69D31AAA
:100A7C00642B01D90323FDE0814B1B6803F48073C5
:100A8C00002BF0D07B68DB68012B06D17B4B1B6AFB
:100A9C007A4A43F0010313622DE07B68DB68002B7C
:100AAC000CD1764B1B6A754A23F001031362734B0E
:100ABC001B6A724A23F0040313621CE07B68DB6838
:100ACC00052B0CD16D4B1B6A6C4A43F0040313626B
:100ADC006A4B1B6A694A43F0010313620BE0674BD4
:100AEC001B6A664A23F001031362644B1B6A634A58
:100AFC0023F0040313627B68DB68002B15D0FFF72F
:100B0C0077FB38610AE0FFF773FB02463B69D31AA7
:100B1C0041F28832934201D90323ABE0574B1B6A55
:100B2C0003F00203002BEED014E0FFF761FB3861F9
:100B3C000AE0FFF75DFB02463B69D31A41F28832AB
:100B4C00934201D9032395E04C4B1B6A03F002033B
:100B5C00002BEED1FB7D012B05D1484BDB69474ABD
:100B6C0023F08053D3617B68DB69002B00F081801C
:100B7C00424B5B6803F00C03082B61D07B68DB698C
:100B8C00022B46D13F4B00221A60FFF731FB386134
:100B9C0008E0FFF72DFB02463B69D31A022B01D963
:100BAC00032367E0354B1B6803F00073002BF0D177
:100BBC007B681B6AB3F5803F08D1304B5B6823F42C
:100BCC0000327B689B682D4913434B602B4B5B6851
:100BDC0023F474127B68196A7B685B6A0B432749A0
:100BEC0013434B60274B01221A60FFF701FB38615E
:100BFC0008E0FFF7FDFA02463B69D31A022B01D934
:100C0C00032337E01D4B1B6803F00073002BF0D05F
:100C1C002FE01C4B00221A60FFF7EAFA386108E05B
:100C2C00FFF7E6FA02463B69D31A022B01D90323DC
:100C3C0020E0124B1B6803F00073002BF0D118E07E
:100C4C007B68DB69012B01D1012313E00B4B5B6843
:100C5C00FB60FB6803F480327B681B6A9A4206D106
:100C6C00FB6803F470127B685B6A9A4201D0012323
:100C7C0000E0002318461837BD4680BD0010024026
:100C8C00007000406000424280B584B000AF7860D4
:100C9C0039607B68002B01D10123D0E06A4B1B68C3
:100CAC0003F007033A689A4210D9674B1B6823F08C
:100CBC00070265493B6813430B60634B1B6803F0E9
:100CCC0007033A689A4201D00123B8E07B681B689D
:100CDC0003F00203002B20D07B681B6803F0040395
:100CEC00002B05D0594B5B68584A43F4E0635360C2
:100CFC007B681B6803F00803002B05D0534B5B6823
:100D0C00524A43F460535360504B5B6823F0F0023B
:100D1C007B689B684D4913434B607B681B6803F0F1
:100D2C000103002B40D07B685B68012B07D1474B3C
:100D3C001B6803F40033002B15D101237FE07B6883
:100D4C005B68022B07D1414B1B6803F00073002B2F
:100D5C0009D1012373E03D4B1B6803F00203002B08
:100D6C0001D101236BE0394B5B6823F003027B68F4
:100D7C005B68364913434B60FFF73AFAF8600AE0B8
:100D8C00FFF736FA0246FB68D31A41F288329342D7
:100D9C0001D9032353E02D4B5B6803F00C027B68F5
:100DAC005B689B009A42EBD1274B1B6803F007034F
:100DBC003A689A4210D2244B1B6823F0070222494E
:100DCC003B6813430B60204B1B6803F007033A6826
:100DDC009A4201D0012332E07B681B6803F00403C4
:100DEC00002B08D0194B5B6823F4E0627B68DB684E
:100DFC00164913434B607B681B6803F00803002BF8
:100E0C0009D0124B5B6823F460527B681B69DB00D2
:100E1C000E4913434B6000F021F802460B4B5B6804
:100E2C001B0903F00F030A49CB5C22FA03F3094AAE
:100E3C001360094B1B681846FFF798F900231846F6
:100E4C001037BD4680BD00BF00200240001002409C
:100E5C00A4330008100000200000002090B48AB0D9
:100E6C0000AF2A4B3C1D0FCB84E80F0040F201234E
:100E7C003B800023FB610023BB6100237B620023CA
:100E8C007B6100233B62224B5B68FB61FB6903F0D7
:100E9C000C03042B02D0082B03D02DE01D4B3B621E
:100EAC002DE0FB699B0C03F00F0307F128021344A0
:100EBC0013F8243C7B61FB6903F48033002B13D0C3
:100ECC00134B5B685B0C03F0010307F1280213441E
:100EDC0013F8283CBB617B690E4A02FB03F2BB6929
:100EEC00B2FBF3F37B6204E07B690B4A02FB03F376
:100EFC007B627B6A3B6202E0064B3B6200BF3B6A53
:100F0C0018462837BD4690BC704700BF9033000888
:100F1C000010024000127A0000093D0080B400AFBE
:100F2C00024B1B681846BD4680BC70471000002061
:100F3C0080B500AFFFF7F2FF0246054B5B681B0A5A
:100F4C0003F007030349CB5C22FA03F3184680BD78
:100F5C0000100240B433000880B500AFFFF7DEFF8D
:100F6C000246054B5B68DB0A03F007030349CB5CC5
:100F7C0022FA03F3184680BD00100240B433000877
:100F8C0080B485B000AF78600A4B1B680A4AA2FB9C
:100F9C0003235B0A7A6802FB03F3FB6000BFFB6868
:100FAC005A1EFA60002BF9D100BF00BF1437BD46A2
:100FBC0080BC704710000020D34D621080B582B009
:100FCC0000AF78607B68002B01D101231DE07B68AA
:100FDC0093F83D30DBB2002B06D17B68002283F8FE
:100FEC003C20786801F0DEFB7B68022283F83D2010
:100FFC007B681A687B6804331946104600F01CFAAB
:10100C007B68012283F83D20002318460837BD4633
:10101C0080BD80B485B000AF78607B681B68DA68EF
:10102C007B681B6842F00102DA607B681B689B6876
:10103C0003F00703FB60FB68062B07D07B681B687B
:10104C001A687B681B6842F001021A60002318467C
:10105C001437BD4680BC704780B582B000AF786055
:10106C007B681B681B6903F00203022B22D17B688F
:10107C001B68DB6803F00203022B1BD17B681B6827
:10108C006FF002021A617B6801221A777B681B6879
:10109C009B6903F00303002B03D0786800F0B1F9CF
:1010AC0005E0786800F0A4F9786800F0B3F97B6883
:1010BC0000221A777B681B681B6903F00403042B5E
:1010CC0022D17B681B68DB6803F00403042B1BD163
:1010DC007B681B686FF004021A617B6802221A7726
:1010EC007B681B689B6903F44073002B03D0786802
:1010FC0000F087F905E0786800F07AF9786800F07C
:10110C0089F97B6800221A777B681B681B6903F0DE
:10111C000803082B22D17B681B68DB6803F00803EB
:10112C00082B1BD17B681B686FF008021A617B6867
:10113C0004221A777B681B68DB6903F00303002B1E
:10114C0003D0786800F05DF905E0786800F050F99C
:10115C00786800F05FF97B6800221A777B681B685F
:10116C001B6903F01003102B22D17B681B68DB6812
:10117C0003F01003102B1BD17B681B686FF010025F
:10118C001A617B6808221A777B681B68DB6903F499
:10119C004073002B03D0786800F033F905E07868D1
:1011AC0000F026F9786800F035F97B6800221A7790
:1011BC007B681B681B6903F00103012B0ED17B6854
:1011CC001B68DB6803F00103012B07D17B681B68EC
:1011DC006FF001021A61786801F00AFB7B681B68EA
:1011EC001B6903F08003802B0ED17B681B68DB68C6
:1011FC0003F08003802B07D17B681B686FF08002A3
:10120C001A61786800F05DFA7B681B681B6903F053
:10121C004003402B0ED17B681B68DB6803F0400356
:10122C00402B07D17B681B686FF040021A6178680D
:10123C0000F0F9F87B681B681B6903F02003202B76
:10124C000ED17B681B68DB6803F02003202B07D1D1
:10125C007B681B686FF020021A61786800F028FA2E
:10126C0000BF0837BD4680BD80B584B000AF786044
:10127C0039607B6893F83C30012B01D10223B3E039
:10128C007B68012283F83C207B68022283F83D2096
:10129C007B681B689B68FB60FB6823F07703FB6033
:1012AC00FB6823F47F43FB607B681B68FA689A60D9
:1012BC003B681B68B3F5005F3ED0B3F5005F00F2EE
:1012CC008780B3F5805F00F08580B3F5805F7FD8B1
:1012DC00702B1AD0702B7BD8602B50D0602B77D80A
:1012EC00502B3CD0502B73D8402B58D0402B6FD860
:1012FC00302B64D0302B6BD8202B60D0202B67D8B0
:10130C00002B5CD0102B5AD062E07B6818683B68CD
:10131C0099683B685A683B68DB6800F066F97B6843
:10132C001B689B68FB60FB6843F07703FB607B6882
:10133C001B68FA689A604EE07B6818683B6899688D
:10134C003B685A683B68DB6800F04FF97B681B68A8
:10135C009A687B681B6842F480429A603BE07B6829
:10136C0018683B6859683B68DB681A4600F0C6F899
:10137C007B681B685021184600F01DF92BE07B6838
:10138C0018683B6859683B68DB681A4600F0E4F85B
:10139C007B681B686021184600F00DF91BE07B6828
:1013AC0018683B6859683B68DB681A4600F0A6F879
:1013BC007B681B684021184600F0FDF80BE07B6849
:1013CC001A683B681B681946104600F0F4F802E0F6
:1013DC0000BF00E000BF7B68012283F83D207B68E2
:1013EC00002283F83C20002318461037BD4680BDF0
:1013FC0080B483B000AF786000BF0C37BD4680BCB2
:10140C00704780B483B000AF786000BF0C37BD4626
:10141C0080BC704780B483B000AF786000BF0C37DD
:10142C00BD4680BC704780B483B000AF786000BF0D
:10143C000C37BD4680BC704780B485B000AF786077
:10144C0039607B681B68FB607B68294A93420BD030
:10145C007B68B3F1804F07D07B68264A934203D058
:10146C007B68254A934208D1FB6823F07003FB602C
:10147C003B685B68FA681343FB607B681C4A9342C9
:10148C000BD07B68B3F1804F07D07B68194A93422D
:10149C0003D07B68184A934208D1FB6823F440734D
:1014AC00FB603B68DB68FA681343FB60FB6823F066
:1014BC0080023B685B691343FB607B68FA681A60C7
:1014CC003B689A687B68DA623B681A687B689A6248
:1014DC007B68074A934203D13B681A697B681A639D
:1014EC007B6801225A6100BF1437BD4680BC70472F
:1014FC00002C0140000400400008004080B487B07C
:10150C0000AFF860B9607A60FB681B6A7B61FB68AE
:10151C001B6A23F00102FB681A62FB689B693B6142
:10152C003B6923F0F0033B617B681B013A69134371
:10153C003B617B6923F00A037B617A69BB681343C7
:10154C007B61FB683A699A61FB687A691A6200BF31
:10155C001C37BD4680BC704780B487B000AFF860C4
:10156C00B9607A60FB681B6A23F01002FB681A6290
:10157C00FB689B697B61FB681B6A3B617B6923F49D
:10158C0070437B617B681B037A6913437B613B6906
:10159C0023F0A0033B61BB681B013A6913433B6119
:1015AC00FB687A699A61FB683A691A6200BF1C375A
:1015BC00BD4680BC704780B485B000AF78603960A0
:1015CC007B689B68FB60FB6823F07003FB603A68E8
:1015DC00FB68134343F00703FB607B68FA689A606F
:1015EC0000BF1437BD4680BC704780B487B000AFD5
:1015FC00F860B9607A603B60FB689B687B617B69D3
:10160C0023F47F437B613B681A027B681A43BB68F7
:10161C0013437A6913437B61FB687A699A6000BF54
:10162C001C37BD4680BC704780B485B000AF786075
:10163C0039607B6893F83C30012B01D1022332E0F6
:10164C007B68012283F83C207B68022283F83D20D2
:10165C007B681B685B68FB607B681B689B68BB6076
:10166C00FB6823F07003FB603B681B68FA6813434C
:10167C00FB60BB6823F08003BB603B685B68BA68A7
:10168C001343BB607B681B68FA685A607B681B68F5
:10169C00BA689A607B68012283F83D207B6800223F
:1016AC0083F83C20002318461437BD4680BC704795
:1016BC0080B483B000AF786000BF0C37BD4680BCEF
:1016CC00704780B483B000AF786000BF0C37BD4664
:1016DC0080BC704780B582B000AF78607B68002B0F
:1016EC0001D101233FE07B6893F83930DBB2002B4A
:1016FC0006D17B68002283F83820786801F0D0F896
:10170C007B68242283F839207B681B68DA687B6845
:10171C001B6822F40052DA60786800F00BF97B68E1
:10172C001B681A697B681B6822F490421A617B68FB
:10173C001B685A697B681B6822F02A025A617B6815
:10174C001B68DA687B681B6842F40052DA607B68BD
:10175C000022DA637B68202283F839207B68202200
:10176C0083F83A20002318460837BD4680BD80B563
:10177C0088B002AFF860B9603B601346FB80002371
:10178C007B61FB6893F83930DBB2202B40F083800F
:10179C00BB68002B02D0FB88002B01D101237BE01E
:1017AC00FB6893F83830012B01D1022374E0FB68FD
:1017BC00012283F83820FB680022DA63FB682122BF
:1017CC0083F83920FEF714FD7861FB68FA889A8457
:1017DC00FB68FA88DA8442E0FB68DB8C9BB2013B45
:1017EC009AB2FB68DA84FB689B68B3F5805F22D100
:1017FC003B6800937B6900228021F86800F050F868
:10180C000346002B01D0032346E0BB683B613B69D8
:10181C001B881A46FB681B68C2F308025A60FB68F7
:10182C001B69002B03D1BB680233BB6017E0BB689C
:10183C000133BB6013E03B6800937B69002280217D
:10184C00F86800F02DF80346002B01D0032323E0A9
:10185C00BB685A1CBA601A78FB681B685A60FB6834
:10186C00DB8C9BB2002BB7D13B6800937B690022C9
:10187C004021F86800F014F80346002B01D0032334
:10188C000AE0FB68202283F83920FB68002283F8E9
:10189C003820002300E0022318461837BD4680BDCF
:1018AC0080B584B000AFF860B9603B601346FB7143
:1018BC002CE0BB69B3F1FF3F28D0BB69002B07D0EC
:1018CC00FEF796FC02463B68D31ABA699A421DD2BF
:1018DC00FB681B68DA68FB681B6822F4D072DA605C
:1018EC00FB681B685A69FB681B6822F001025A618D
:1018FC00FB68202283F83920FB68202283F83A20E9
:10190C00FB68002283F8382003230FE0FB681B6878
:10191C001A68BB681340BA689A420CBF01230023B3
:10192C00DBB21A46FB799A42C3D000231846103713
:10193C00BD4680BD80B584B000AF78607B681B6805
:10194C001B6923F440517B68DA687B681B680A4387
:10195C001A617B689A687B681B691A437B685B69B0
:10196C001343FB607B681B68DB6823F4B05323F0E4
:10197C000C037A681268F9680B43D3607B681B68A8
:10198C005B6923F440717B689A697B681B680A4326
:10199C005A617B681B68524A93424ED1FFF7DCFABE
:1019AC00B860BA6813469B0013449A001A447B68CB
:1019BC005B689B00B2FBF3F34A4AA2FB03235B096F
:1019CC001901BA6813469B0013449A001A447B68A9
:1019DC005B689B00B2FBF3F2424BA3FB02035B0977
:1019EC00642000FB03F3D31A1B0132333D4AA2FBE4
:1019FC0003235B0903F0F0031944BA6813469B00F8
:101A0C0013449A001A447B685B689B00B2FBF3F2A8
:101A1C00344BA3FB02035B09642000FB03F3D31AD2
:101A2C001B0132332F4AA2FB03235B0903F00F0285
:101A3C007B681B680A449A604DE0FFF779FAB8603E
:101A4C00BA6813469B0013449A001A447B685B687F
:101A5C009B00B2FBF3F3234AA2FB03235B0919019E
:101A6C00BA6813469B0013449A001A447B685B685F
:101A7C009B00B2FBF3F21B4BA3FB02035B0964203C
:101A8C0000FB03F3D31A1B013233164AA2FB0323C8
:101A9C005B0903F0F0031944BA6813469B00134426
:101AAC009A001A447B685B689B00B2FBF3F20D4B07
:101ABC00A3FB02035B09642000FB03F3D31A1B0195
:101ACC003233084AA2FB03235B0903F00F027B6845
:101ADC001B680A449A6000BF1037BD4680BD00BF2A
:101AEC00003801401F85EB5180B500AF104B9B882F
:101AFC00032B16D0032B18DC012B02D0022B06D0A3
:101B0C0013E00B4B00229A800A2000F06FFA084B6E
:101B1C0000229A8001224FF480510648FEF71BFEEA
:101B2C0003E0034B00229A8000BF00BF80BD00BFC2
:101B3C0098000020000C014080B582B000AF00235B
:101B4C00FB710AE0FA79484911F822306FF300036F
:101B5C0001F82230FB790133FB71FB79002BF1D0BA
:101B6C0080214248FEF7E0FD0346002B04D13E4A9B
:101B7C00137843F0010313700023FB7166E0FB79CB
:101B8C00394A12F82330C3F30003DBB21846FB7951
:101B9C00354A12F82330C3F30003DAB2FB79324929
:101BAC0011F82330C3F3C003DBB25340DBB2034064
:101BBC00DBB2FA7903F00103D8B22B4911F82230C9
:101BCC0060F3410301F82230FB79274A12F82330E5
:101BDC00C3F30003DAB2FB79234911F82330C3F3C2
:101BEC004003DBB25340D9B2FB791F4A12F82330C1
:101BFC00C3F3C003DBB2FA794B40D8B21A4911F8DF
:101C0C00223060F3820301F82230FB79FA7916490D
:101C1C0011F82330C3F30003D8B2134911F8223062
:101C2C0060F3C30301F82230FB790F4A12F823301A
:101C3C00C3F3C003DBB2002B05D1FB790A4A9B002E
:101C4C00134400225A80FB790133FB71FB79002B82
:101C5C0095D000F00DF800F01DF800F02DF800BF45
:101C6C000837BD4680BD00BF98000020000C014025
:101C7C0080B400AF064B1B7803F00203DBB2002BE1
:101C8C0002D0034B01229A8000BFBD4680BC704736
:101C9C009800002080B400AF064B1B7803F00403BF
:101CAC00DBB2002B02D0034B02229A8000BFBD4650
:101CBC0080BC70479800002080B400AF0D4B1B789F
:101CCC0003F00803DBB2002B10D00A4B5B883B2BD4
:101CDC0005D8084B5B8801339AB2064B5A80054BEA
:101CEC005B883B2B02D1034B03229A8000BFBD467D
:101CFC0080BC70479800002080B400AF074B0022D6
:101D0C005A80064B00221A70044B00225A71034B66
:101D1C0000221A7100BFBD4680BC7047A000002095
:101D2C0080B582B000AF1F4B00225A801D4B5B88E0
:101D3C0001339AB21B4B5A801A4B5B790133DAB2DE
:101D4C00184B5A71174B02221A70164B5B7903F021
:101D5C000703DBB2002B05D1124B1B790133DAB22E
:101D6C00104B1A710F4B5B793F2B17D900224FF494
:101D7C0080510D48FEF7EFFC0023FB7106E0FB7968
:101D8C000A4A0021D154FB790133FB71FB79072BF3
:101D9C00F5D9074800F096FEFFF7AEFF00BF0837F5
:101DAC00BD4680BDA0000020000C0140A800002012
:101DBC00A033000880B500AF674B1B78032B00F2F3
:101DCC00CA8001A252F823F0E51D0008031E00088A
:101DDC00511E0008CB1E00084FF480415F48FEF7EF
:101DEC00A3FC0346002B40F0B580FFF785FF5A4B50
:101DFC0001221A70AEE04FF480415848FEF794FC73
:101E0C000346002B06D1544B5B8801339AB2524BDC
:101E1C005A80A0E0504B5B88572B03D94E4B5B8804
:101E2C00642B02D9FFF768FF95E04B4B00225A80D8
:101E3C00494B5B8801339AB2474B5A80464B02227E
:101E4C001A7088E04FF480414448FEF76DFC03465D
:101E5C00002B06D0404B5B8801339AB23E4B5A8024
:101E6C0079E03D4B5B88012B10D93B4B5B88042BF5
:101E7C000CD8394B00225A80374B5B8801339AB20D
:101E8C00354B5A80344B03221A7017E0324B5B8867
:101E9C00072B10D9304B5B880A2B0CD82E4B002209
:101EAC005A802D4B5B8801339AB22B4B5A802A4BAC
:101EBC0003221A7002E0FFF71FFF4CE04BE04FF4D7
:101ECC0080412648FEF730FC0346002B06D1224BFE
:101EDC005B8801339AB2204B5A803CE01E4B5B88E6
:101EEC00072B11D91C4B5B880A2B0DD81A4B1B796D
:101EFC001A461B4B9B5C184A12795B00D9B2184BE3
:101F0C009954FFF70DFF24E0134B5B88012B1DD96F
:101F1C00114B5B88042B19D80F4B1B791A46104BAD
:101F2C009B5C0D4A12795B00D9B20D4B99540A4B4C
:101F3C001B791A460A4B9B5C074A127943F0010342
:101F4C00D9B2074B9954FFF7EBFE02E0FFF7D4FE32
:101F5C0001E000E000BF80BDA0000020000C0140AB
:101F6C00A800002080B500AF00224FF400510A48B1
:101F7C00FEF7F1FB094B00221A70094B00221A8064
:101F8C00084B00221A70084B00221A70074B0022D3
:101F9C001A7000BF80BD00BF000C0140B1000020D2
:101FAC00B2000020B4000020B5000020B0000020DA
:101FBC0080B500AF00224FF400510A48FEF7CBFB6E
:101FCC00094B00221A70084B01229A70064B002212
:101FDC00DA70054B00221A71034B00225A7100BFB4
:101FEC0080BD00BF000C0140B800002080B582B05D
:101FFC0000AF0346FB71FFF7DBFF084B01221A70A1
:10200C00074B1B780133DAB2054B1A70034AFB7984
:10201C00537000BF0837BD4680BD00BFB80000201C
:10202C000800002080B483B000AF0E4B1B791A4619
:10203C000D4B9B5C1A460B4B5B7902FA03F3DBB23C
:10204C0023F07F03FB71FB79002B03D0054B03229C
:10205C009A7002E0034B02229A7000BF0C37BD4607
:10206C0080BC7047B80000200800002080B500AF8D
:10207C00124B0022DA70114B5B790133DAB20F4B41
:10208C005A710E4B5B79082B08D10C4B00225A71FC
:10209C000A4B1B790133DAB2084B1A71074B1B79C7
:1020AC00082B06D1054B00221A71044B04229A709E
:1020BC0001E0FFF7B7FF00BF80BD00BFB8000020F4
:1020CC0080B500AF0F4BDB780133DAB20D4BDA7011
:1020DC000C4BDB78092B06D801224FF400510A482F
:1020EC00FEF739FB0BE000224FF400510648FEF7D7
:1020FC0032FB044BDB780C2B01D1FFF7B7FF00BF91
:10210C0080BD00BFB8000020000C014080B500AFBE
:10211C000F4BDB780133DAB20D4BDA700C4BDB78FA
:10212C00032B06D801224FF400510A48FEF713FB8B
:10213C000BE000224FF400510648FEF70CFB044B59
:10214C00DB780C2B01D1FFF791FF00BF80BD00BFE6
:10215C00B8000020000C014080B500AF184BDB78B4
:10216C000133DAB2164BDA70154BDB78032B06D839
:10217C0001224FF400511348FEF7EDFA1DE0104B0D
:10218C00DB78602B06D800224FF400510D48FEF787
:10219C00E2FA12E00A4B01229A70094B0022DA7023
:1021AC00074B5B78013BDAB2054B5A70044B5B78FA
:1021BC00002B02D1024B00221A7000BF80BD00BF61
:1021CC00B8000020000C014080B500AF114B1B780B
:1021DC00002B1BD00F4B9B78013B032B17D801A274
:1021EC0052F823F0012200080D22000807220008F3
:1021FC0013220008FFF716FF09E0FFF761FF06E066
:10220C00FFF784FF03E0FFF7A7FF00E000BF00BF6C
:10221C0080BD00BFB800002080B588B000AF07F1CA
:10222C00100300221A605A609A60DA60344B9B6982
:10223C00334A43F020039361314B9B6903F0200335
:10224C00FB60FB682E4B9B692D4A43F004039361A2
:10225C002B4B9B6903F00403BB60BB68284B9B6949
:10226C00274A43F008039361254B9B6903F008034D
:10227C007B607B680022B0212248FEF76CFA0022BA
:10228C0043F203012048FEF766FAB0233B610123B9
:10229C007B610023BB610223FB6107F1100319462C
:1022AC001848FEF7BDF843F203033B6101237B6141
:1022BC000023BB610223FB6107F11003194612488E
:1022CC00FEF7AEF84FF480433B6100237B610023A3
:1022DC00BB6107F1100319460B48FEF7A1F88023E8
:1022EC003B6100237B610123BB6107F1100319469D
:1022FC000548FEF795F800BF2037BD4680BD00BFEE
:10230C000010024000080140000C014080B400AFF6
:10231C00314B00221A60304B01225A602E4B0122A5
:10232C009A602D4B0122DA602B4B00221A612A4B4A
:10233C0001225A61284B00229A61274B0022DA6154
:10234C00254B00221A62244B00225A62224B012296
:10235C009A62214B0022DA621F4B01221A631E4B38
:10236C0001225A631C4B01229A631B4B0022DA6335
:10237C00194B00221A64184B00225A64164B012286
:10238C009A64154B0122DA64134B01221A65124B25
:10239C0000225A65104B01229A650F4B0022DA6518
:1023AC000D4B00221A660C4B01225A660A4B002276
:1023BC009A66094B0122DA66074B01221A67064B13
:1023CC0001225A67044B00229A67034B0022DA67FA
:1023DC0000BFBD4680BC7047C000002080B584B0F3
:1023EC0000AFF860B9607A607B689AB24FF6FF7301
:1023FC00B9680448FFF7BBF97B6818461037BD462F
:10240C0080BD00BF8801002080B500AFFDF798FEAD
:10241C0000F01CF8FFF700FF00F078F900F016FA56
:10242C00FFF774FFFFF79EFDFFF7C2FD0548FEF7AF
:10243C00F0FD01224FF480510348FEF78CF9FFF7B1
:10244C0053FBFCE744010020000C014080B590B028
:10245C0000AF07F1180328220021184600F0BCFA3F
:10246C003B1D00221A605A609A60DA601A610123DF
:10247C00BB614FF48033FB6100233B620123BB62E1
:10248C0002237B634FF48033BB634FF4E013FB6395
:10249C0007F118031846FEF777F90346002B01D015
:1024AC0000F019F80F237B600223BB600023FB6054
:1024BC004FF480633B6100237B613B1D0221184676
:1024CC00FEF7E2FB0346002B01D000F004F800BF3E
:1024DC004037BD4680BD80B400AF00BFBD4680BC58
:1024EC007047000080B485B000AF154B9B69144A4F
:1024FC0043F001039361124B9B6903F00103BB6032
:10250C00BB680F4BDB690E4A43F08053D3610C4B15
:10251C00DB6903F080537B607B680A4B5B68FB6074
:10252C00FB6823F0E063FB60FB6843F08073FB60A7
:10253C00044AFB68536000BF1437BD4680BC70472B
:10254C00001002400000014080B400AF00BFBD4647
:10255C0080BC704780B400AFFEE780B400AFFEE7EC
:10256C0080B400AFFEE780B400AFFEE780B400AFEC
:10257C0000BFBD4680BC704780B400AF00BFBD46F5
:10258C0080BC704780B400AF00BFBD4680BC7047B4
:10259C0080B500AFFDF71AFE00BF80BD80B500AF5F
:1025AC000248FEF759FD00BF80BD00BF440100206A
:1025BC0080B586B000AFF860B9607A6000237B61AB
:1025CC000AE0AFF300800146BB685A1CBA60CAB27D
:1025DC001A707B6901337B617A697B689A42F0DB04
:1025EC007B6818461837BD4680BD000080B584B0A6
:1025FC0000AF7860114B1B68002B02D10F4B104AB7
:10260C001A600E4B1B68FB600C4B1A687B681344FA
:10261C006A46934207D900F0B5F903460C221A60BA
:10262C004FF0FF3306E0054B1A687B681344034AEE
:10263C001360FB6818461037BD4680BD4001002072
:10264C00E001002080B483B000AF78604FF0FF331E
:10265C0018460C37BD4680BC704780B483B000AFC1
:10266C00786039603B684FF400525A60002318467A
:10267C000C37BD4680BC704780B483B000AF786027
:10268C00012318460C37BD4680BC704780B485B01A
:10269C0000AFF860B9607A60002318461437BD4665
:1026AC0080BC704780B400AF154B1B68144A43F0D4
:1026BC0001031360124B5A681149124B13404B60C3
:1026CC000F4B1B680E4A23F0847323F48033136082
:1026DC000B4B1B680A4A23F480231360084B5B687E
:1026EC00074A23F4FE035360054B4FF41F029A6014
:1026FC00054B4FF000629A6000BFBD4680BC70472E
:10270C00001002400000FFF800ED00E080B586B03C
:10271C0000AF07F1080300221A605A609A60DA6071
:10272C003B4600221A605A601C4B1D4A1A601B4B18
:10273C0047225A60194B00229A60184B6322DA60C8
:10274C00164B00221A61154B00229A611348FEF7B2
:10275C0035FC0346002B01D0FFF7BDFE4FF4805330
:10276C00BB6007F1080319460C48FEF77DFD0346D4
:10277C00002B01D0FFF7AFFE00233B6000237B60F2
:10278C003B4619460548FEF74FFF0346002B01D088
:10279C00FFF7A1FE00BF1837BD4680BD44010020E5
:1027AC000004004080B584B000AF78607B681B6883
:1027BC000D4A934213D10D4BDB690C4A43F00203D3
:1027CC00D3610A4BDB6903F00203FB60FB68002258
:1027DC0000211D20FDF7EDFD1D20FDF706FE00BFBD
:1027EC001037BD4680BD00BF000400400010024001
:1027FC0080B582B000AF78607B681A68104B1B689C
:10280C009A4218D10F4B1B780133DAB20D4B1A7068
:10281C000D4B1B8801339AB20B4B1A80094B1B785A
:10282C00C82B04D1074B00221A70FFF785F9FFF76C
:10283C00CBFCFFF7BFFA00BF0837BD4680BD00BF19
:10284C0044010020840100208601002080B500AFE7
:10285C00114B124A1A60104B4FF4E1325A600E4B76
:10286C0000229A600C4B0022DA600B4B00221A619A
:10287C00094B0C225A61084B00229A61064B00222C
:10288C00DA610548FEF726FF0346002B01D0FFF75F
:10289C0022FE00BF80BD00BF88010020003801402F
:1028AC0080B588B000AF786007F1100300221A6081
:1028BC005A609A60DA607B681B681C4A934231D17B
:1028CC001B4B9B691A4A43F480439361184B9B69D9
:1028DC0003F48043FB60FB68154B9B69144A43F07F
:1028EC0004039361124B9B6903F00403BB60BB6848
:1028FC004FF400733B6102237B610323FB6107F1FF
:10290C00100319460B48FDF78BFD4FF480633B61B8
:10291C0000237B610023BB6107F1100319460548B6
:10292C00FDF77EFD00BF2037BD4680BD003801405D
:10293C000010024000080140002103E00B4B5B58E3
:10294C00435004310A480B4B42189A42F6D30A4AB8
:10295C0002E0002342F8043B084B9A42F9D3FFF7FC
:10296C00A1FE00F015F8FFF74FFD70472834000862
:10297C00000000207800002078000020E0010020FA
:10298C00FEE70000014B1868704700BF14000020E0
:10299C0070B500260C4D0D4C641BA410A64209D139
:1029AC0000F0E4FC00260A4D0A4C641BA410A6425D
:1029BC0005D170BD55F8043B98470136EEE755F844
:1029CC00043B98470136F2E7203400082034000815
:1029DC00203400082434000803460244934200D1FA
:1029EC00704703F8011BF9E770B50E46054618B1A0
:1029FC0083690BB900F048FAAB69AC6813B9284687
:102A0C0000F042FA2C4B9C4220D16C68636EDB07C1
:102A1C0005D4A389980502D4A06D00F0D3FAA3893C
:102A2C0019071DD52369DBB1013EA36816F8011FF8
:102A3C00013BA36039BB002B38DA22460A21284619
:102A4C0000F048F8013011D00A2511E01B4B9C42D4
:102A5C0001D1AC68DAE71A4B9C4208BFEC68D5E7A9
:102A6C002146284600F088F80028DDD04FF0FF35CD
:102A7C00636EDA0705D4A3899B0502D4A06D00F020
:102A8C00A2FA284670BD002B04DAA2699A4206DC31
:102A9C000A2904D023685A1C22601970C5E7224603
:102AAC00284600F017F80130BFD1DFE70A2523686C
:102ABC005A1C22601D70DBE7E0330008003400086C
:102ACC00C0330008024B01461868FFF78DBF00BFEA
:102ADC0014000020F8B50E461446054618B183695B
:102AEC000BB900F0D1F9214B9C422BD16C68A36936
:102AFC00A360A3891A072FD523696BB323692068B8
:102B0C00F6B2C01A63693746834204DC2146284674
:102B1C0000F026F930BBA3680130013BA3602368A9
:102B2C005A1C22601E706369834204D0A389DB07A0
:102B3C0006D50A2E04D12146284600F011F988B991
:102B4C003846F8BD0A4B9C4201D1AC68CFE7094B23
:102B5C009C4208BFEC68CAE72146284600F00CF8F6
:102B6C000028CBD04FF0FF37EAE700BFE033000876
:102B7C0000340008C0330008324B70B51D6806469F
:102B8C000C4625B1AB6913B9284600F07DF92E4BE4
:102B9C009C420FD16C68A389B4F90C2019072CD472
:102BAC00DD0611D40923336042F040034FF0FF30AF
:102BBC00A3813EE0254B9C4201D1AC68EBE7244B52
:102BCC009C4208BFEC68E6E7580712D5616B41B12F
:102BDC0004F14403994202D0304600F059FA002324
:102BEC006363A38923F02403A38100236360236917
:102BFC002360A38943F00803A38123694BB9A389FC
:102C0C0003F42073B3F5007F03D02146304600F067
:102C1C00FFF9A089B4F90C2010F001030AD00023AD
:102C2C00A36063695B42A361236943B910F0800020
:102C3C00BAD170BD810758BF6369A360F4E7002067
:102C4C00F7E700BF14000020E03300080034000850
:102C5C00C03300088A892DE9F041054610070C465F
:102C6C0058D44B68002B05DC0B6C002B02DC0020CD
:102C7C00BDE8F081E66A002EF9D0002312F48052F0
:102C8C002F682B6032D0606DA3895A0705D5636815
:102C9C00C01A636B0BB1236CC01A00230246E66AA0
:102CAC002846216AB047431CA38906D129681D29EF
:102CBC002CD82A4ACA40D60728D50022626022693D
:102CCC00D904226004D5421C01D12B6803B960657C
:102CDC00616B2F600029CAD004F14403994202D0E1
:102CEC00284600F0D5F900206063C1E7216A012372
:102CFC002846B047411CC7D12B68002BC4D01D2BD4
:102D0C0001D0162B01D12F60B1E7A38943F040030A
:102D1C00A381ADE70F69002FA9D0930718BF00233B
:102D2C000E6808BF4B69A6EB07080F608B60B8F103
:102D3C00000F9CDD43463A462846216AA66AB047F6
:102D4C00002806DCA3894FF0FF3043F04003A38139
:102D5C008EE70744A8EB0008E9E700BF010040201C
:102D6C0038B50B6905460C4613B90025284638BD05
:102D7C0018B183690BB900F087F8144B9C421BD136
:102D8C006C68B4F90C30002BEFD0626ED00704D411
:102D9C00990502D4A06D00F015F928462146FFF7DD
:102DAC0059FF636E0546DA07E0D4A3899B05DDD491
:102DBC00A06D00F008F9D9E7054B9C4201D1AC6835
:102DCC00DFE7044B9C4208BFEC68DAE7E03300080D
:102DDC0000340008C0330008002310B50446C0E9D5
:102DEC000033C0E90433836081814366C28183610F
:102DFC00194608225C30FFF7EFFD054B2462636235
:102E0C00044BA362044BE362044B236310BD00BF6D
:102E1C00093200082B3200086332000887320008A0
:102E2C00014900F0AFB800BF6D2D000870B56825E2
:102E3C004A1E55430E4605F1740100F075F904461F
:102E4C0040B10021C0E900160C30A06005F1680209
:102E5C00FFF7C2FD204670BD014800F0B3B800BFBB
:102E6C00D8010020014800F0AEB800BFD801002006
:102E7C00014800F0A7B800BFD3010020014800F0C2
:102E8C00A2B800BFD301002010B50446FFF7F0FF35
:102E9C00A3691BB1BDE81040FFF7F0BFC4E91233C2
:102EAC002365134B134A1B68A262A34208BF01237C
:102EBC00204608BFA36100F01FF86060204600F0B8
:102ECC001BF8A060204600F017F800220421E060F7
:102EDC006068FFF781FF01220921A068FFF77CFFE2
:102EEC0002221221E068FFF777FF0123A361D1E7EB
:102EFC00BC3300082D2E0008F8B50746FFF7ACFFD1
:102F0C001E4B1E68B36913B93046FFF7BDFF483638
:102F1C00D6E90134013B03D533680BB33668F7E7C8
:102F2C00B4F90C50D5B9164B04F15800E360656642
:102F3C0000F047F8FFF796FF08222946C4E901552F
:102F4C00C4E904552560A56104F15C00FFF744FD5C
:102F5C00C4E90D55C4E912552046F8BD6834D9E7CB
:102F6C0004213846FFF762FF044630600028D5D1B3
:102F7C00FFF778FF0C233B60EEE700BFBC33000883
:102F8C000100FFFF2DE9F84306468846002700F1B3
:102F9C004804D4E90195B9F1010905D52468002C40
:102FAC00F7D13846BDE8F883AB89012B07D9B5F9C1
:102FBC000E30013303D029463046C04707436835ED
:102FCC00E9E770477047704770B50E46B1F90E10BF
:102FDC00144600291D4696B007DA00232B60B389EE
:102FEC001A0610D44FF480630EE06A4600F06CF9B8
:102FFC000028F2DB019A02F47042A2F500535A4207
:10300C005A412A60EEE740230020236016B070BDC1
:10301C008B8973B59D0706460C4607D504F147030B
:10302C00236023610123636102B070BD6A4601AB6A
:10303C00FFF7CAFF00990546304600F075F848B90D
:10304C00B4F90C309A05EFD423F0030343F00203D8
:10305C00A381E3E70D4BB362A389206043F08003A7
:10306C00A381009B20616361019B5BB13046B4F985
:10307C000E1000F03BF928B1A38923F0030343F0B1
:10308C000103A381A0890543A581CDE72D2E00085E
:10309C0038B50546002943D051F8043C0C1F002BD1
:1030AC00B8BFE41800F044F91E4A1368104633B94F
:1030BC00636014602846BDE8384000F03FB9A34275
:1030CC000AD921686218934201BF1A685B685218CA
:1030DC00226063600460EDE71A465B680BB1A342A3
:1030EC00FAD911685018A0420BD12068014450182D
:1030FC0083421160DED118685B6801441160536033
:10310C00D8E702D90C232B60D4E7206821188B4216
:10311C0001BF19685B680918216063605460C9E7D6
:10312C0038BD00BFC8010020F8B5CD1C25F0030543
:10313C0008350C2D38BF0C25002D064601DBA942A5
:10314C0003D90C2333600020F8BD00F0F1F82149BD
:10315C000A6814469CB9204F3B6823B92146304677
:10316C0000F03CF838602946304600F037F8431C34
:10317C0023D10C233046336000F0E0F8E3E72368FA
:10318C005B1B17D40B2B03D923601C44256004E074
:10319C006368A2420CBF0B605360304600F0CEF85F
:1031AC0004F10B00231D20F00700C21ACCD01B1A0F
:1031BC00A350C9E722466468CCE7C41C24F003047E
:1031CC00A042E3D0211A304600F008F80130DDD1DE
:1031DC00CFE700BFC8010020CC01002038B5002388
:1031EC00054D044608462B60FFF700FA431C02D13C
:1031FC002B6803B1236038BDDC01002010B50C46F0
:10320C00B1F90E1000F0A0F80028ABBF636DA389D4
:10321C001B1823F48053ACBF6365A38110BD2DE94B
:10322C00F0411F468B890546DB050C46164605D535
:10323C0002230022B1F90E1000F068F8A38932467F
:10324C0023F48053A38128463B46B4F90E10BDE805
:10325C00F04100F017B810B50C46B1F90E1000F0A3
:10326C0055F8431CA38915BF606523F4805343F4C0
:10327C008053A38118BFA38110BDB1F90E1000F0CB
:10328C0013B8000038B50446084611460022054D17
:10329C002A601A46FFF7A2F8431C02D12B6803B12F
:1032AC00236038BDDC01002038B50023054D0446F1
:1032BC0008462B60FFF7C6F9431C02D12B6803B1FB
:1032CC00236038BDDC01002038B50023064D0446D0
:1032DC00084611462B60FFF7C0F9431C02D12B683E
:1032EC0003B1236038BD00BFDC01002038B50023DA
:1032FC00054D044608462B60FFF7BEF9431C02D16E
:10330C002B6803B1236038BDDC01002038B50446BE
:10331C00084611460022054D2A601A46FFF7B6F9F9
:10332C00431C02D12B6803B1236038BDDC010020A3
:10333C000148FFF747BE00BFD40100200148FFF74A
:10334C0042BE00BFD401002038B5044608461146E1
:10335C000022054D2A601A46FFF72AF9431C02D1B8
:10336C002B6803B1236038BDDC010020F8B500BF29
:10337C00F8BC08BC9E467047F8B500BFF8BC08BC4A
:04338C009E467047A2
:1033900002030405060708090A0B0C0D0E0F101096
:1033A000310D0000000000000000000001020304D5
:1033B00006070809000000000102030418000020AD
:1033C00000000000000000000000000000000000FD
:1033D00000000000000000000000000000000000ED
:1033E00000000000000000000000000000000000DD
:1033F00000000000000000000000000000000000CD
:1034000000000000000000000000000000000000BC
:1034100000000000000000000000000000000000AC
:04342000310100086E
:043424000D0100088E
:10342800100000000100000000FF00FF00FF00FF87
:103438000024F4001800002000000000E033000819
:1034480000340008C033000800000000000000003D
:103458000000000000000000000000000000000064
:103468000000000000000000000000000000000054
:103478000000000000000000000000000000000044
:103488000000000000000000000000000000000034
:0834980000000000000000002C
:040000050800294581
:00000001FF
